S01700004763634170706C69636174696F6E322E737265635A
S11300000C942A000C9434000C9434000C943400A6
S11300100C9434000C9434000C9434000C9434008C
S11300200C9434000C9434000C9434000C9434007C
S11300300C9434000C9434000C9434000C9434006C
S11300400C9434000C9434000C9434000C9434005C
S11300500C94340011241FBECFE5D4E0DEBFCDBF25
S11300600E9436000C9473000C940000CF93DF932D
S113007000D000D0CDB7DEB714BA1ABA17BA0E94AE
S1130080530013E283B3898386B38A8389B383706D
S11300908B83CA9902C01C8201C01C83CE010196C5
S11300A00E946000EFCF599A88E18AB986E880BD42
S11300B010BC8CE089B908955D9BFECF8CB908957E
S11300C00F931F93CF93DF93EC018C010C5F1F4FB1
S11300D089910E945C00C017D107D1F7DF91CF91BD
S10D00E01F910F910895F894FFCFCB
S9030000FC
