S01700004763634170706C69636174696F6E332E7372656359
S11300000C942A000C9434000C9434000C943400A6
S11300100C9434000C9434000C9434000C9434008C
S11300200C9434000C9434000C9434000C9434007C
S11300300C9434000C9434000C9434000C9434006C
S11300400C9434000C9434000C9434000C9434005C
S11300500C94340011241FBECFE5D4E0DEBFCDBF25
S11300600E9436000C9461000C9400008FEF84BB56
S11300708ABB87BB0E9454000E945D00182F0E9417
S11300805D00D82F0E945D00C82F0E945D0083325E
S113009021F415BA1BBA18BAEFCF109515BBD09539
S11300A0DBBBC095C8BBE8CF599A88E18AB986E81A
S11300B080BD10BC8CE089B908955F9BFECF8CB1E4
S10900C00895F894FFCF3F
S9030000FC
